:100000000C942A000C943F000C943F000C943F0089
:100010000C943F000C943F000C943F000C943F0064
:100020000C943F000C943F000C943F000C943F0054
:100030000C943F000C943F000C943F000C943F0044
:100040000C943F000C943F000C943F000C943F0034
:100050000C943F0011241FBECFE5D4E0DEBFCDBF1E
:1000600010E0A0E6B0E0E6EFF0E002C005900D92EF
:10007000A236B107D9F70E9441000C9479000C9484
:10008000000014BA8FEF8ABB809160008BBB83B3F2
:10009000813061F480916000803821F481E08093A8
:1000A000600020C0880F809360001CC083B3823042
:1000B00061F480916000813021F480E880936000D9
:1000C00011C08695809360000DC083B3843021F405
:1000D00080E88093600006C083B3883019F481E023
:1000E0008093600083B38111FDCF809160008BBB52
:0600F000CECFF894FFCF13
:0200F600010007
:00000001FF
